{
  "contractName": "Control",
  "abi": [
    {
      "constant": false,
      "inputs": [
        {
          "name": "_control",
          "type": "address"
        }
      ],
      "name": "transferControl",
      "outputs": [],
      "payable": false,
      "stateMutability": "nonpayable",
      "type": "function"
    },
    {
      "constant": false,
      "inputs": [
        {
          "name": "_votTokenAddr",
          "type": "address"
        }
      ],
      "name": "editVOTTokenAddr",
      "outputs": [],
      "payable": false,
      "stateMutability": "nonpayable",
      "type": "function"
    }
  ],
  "bytecode": "0x606060405260008060006101000a81548173ffffffffffffffffffffffffffffffffffffffff021916908373ffffffffffffffffffffffffffffffffffffffff1602179055506000600160006101000a81548173ffffffffffffffffffffffffffffffffffffffff021916908373ffffffffffffffffffffffffffffffffffffffff160217905550341561009257600080fd5b61022e806100a16000396000f30060606040526004361061004c576000357c0100000000000000000000000000000000000000000000000000000000900463ffffffff1680636d16fa4114610051578063dea880811461008a575b600080fd5b341561005c57600080fd5b610088600480803573ffffffffffffffffffffffffffffffffffffffff169060200190919050506100c3565b005b341561009557600080fd5b6100c1600480803573ffffffffffffffffffffffffffffffffffffffff16906020019091905050610163565b005b600160009054906101000a900473ffffffffffffffffffffffffffffffffffffffff1673ffffffffffffffffffffffffffffffffffffffff163373ffffffffffffffffffffffffffffffffffffffff1614151561011f57600080fd5b80600160006101000a81548173ffffffffffffffffffffffffffffffffffffffff021916908373ffffffffffffffffffffffffffffffffffffffff16021790555050565b600160009054906101000a900473ffffffffffffffffffffffffffffffffffffffff1673ffffffffffffffffffffffffffffffffffffffff163373ffffffffffffffffffffffffffffffffffffffff161415156101bf57600080fd5b806000806101000a81548173ffffffffffffffffffffffffffffffffffffffff021916908373ffffffffffffffffffffffffffffffffffffffff160217905550505600a165627a7a7230582054124a7735f10e0175baa27c27982cc1cb6e92d328f251111d6bc346aab39ea60029",
  "source": "pragma solidity ^0.4.17;\n/**\n * 控制库\n */\ncontract Control {\n\n    // vot代币合约地址\n    address VOTTokenAddr = 0x0;\n\n    // 控制人地址 之后硬编码进去\n    address controlAddr = 0x0;\n\n    /**\n     * 是否是控制者\n     */\n    modifier isControl() {\n        require(msg.sender == controlAddr);\n        _;\n    }\n\n    /** \n     * 转移控制者地址\n     */\n    function transferControl(address _control) public isControl {\n        controlAddr = _control;\n    }\n\n    /**\n     * 修改VOT代币合约地址\n     */\n    function editVOTTokenAddr(address _votTokenAddr) public isControl {\n        VOTTokenAddr = _votTokenAddr;\n    }\n}",
  "sourcePath": "/Users/2liang/VPNONE/vpnone-contract/library/Control.sol",
  "compiler": {
    "name": "solc",
    "version": "0.4.18+commit.9cf6e910.Emscripten.clang"
  },
  "schemaVersion": "1.0.1",
  "updatedAt": "2018-01-20T14:52:52.596Z"
}